{
  "contractName": "TaskAllocation",
  "abi": [
    {
      "inputs": [],
      "stateMutability": "nonpayable",
      "type": "constructor"
    },
    {
      "anonymous": false,
      "inputs": [
        {
          "indexed": false,
          "internalType": "uint256",
          "name": "taskId",
          "type": "uint256"
        },
        {
          "indexed": false,
          "internalType": "uint256",
          "name": "timeRequired",
          "type": "uint256"
        }
      ],
      "name": "TaskAdded",
      "type": "event"
    },
    {
      "anonymous": false,
      "inputs": [
        {
          "indexed": false,
          "internalType": "uint256",
          "name": "taskId",
          "type": "uint256"
        },
        {
          "indexed": false,
          "internalType": "address",
          "name": "worker",
          "type": "address"
        },
        {
          "indexed": false,
          "internalType": "address",
          "name": "workerTaskContract",
          "type": "address"
        }
      ],
      "name": "TaskAllocated",
      "type": "event"
    },
    {
      "anonymous": false,
      "inputs": [
        {
          "indexed": false,
          "internalType": "uint256",
          "name": "originalTaskId",
          "type": "uint256"
        },
        {
          "indexed": false,
          "internalType": "uint256[]",
          "name": "subTaskIds",
          "type": "uint256[]"
        }
      ],
      "name": "TaskSplit",
      "type": "event"
    },
    {
      "anonymous": false,
      "inputs": [
        {
          "indexed": false,
          "internalType": "uint256",
          "name": "workerId",
          "type": "uint256"
        },
        {
          "indexed": false,
          "internalType": "address",
          "name": "wallet",
          "type": "address"
        }
      ],
      "name": "WorkerRegistered",
      "type": "event"
    },
    {
      "inputs": [
        {
          "internalType": "address",
          "name": "",
          "type": "address"
        }
      ],
      "name": "addressToWorkerId",
      "outputs": [
        {
          "internalType": "uint256",
          "name": "",
          "type": "uint256"
        }
      ],
      "stateMutability": "view",
      "type": "function"
    },
    {
      "inputs": [],
      "name": "admin",
      "outputs": [
        {
          "internalType": "address",
          "name": "",
          "type": "address"
        }
      ],
      "stateMutability": "view",
      "type": "function"
    },
    {
      "inputs": [],
      "name": "allocationGapLimit",
      "outputs": [
        {
          "internalType": "uint256",
          "name": "",
          "type": "uint256"
        }
      ],
      "stateMutability": "view",
      "type": "function"
    },
    {
      "inputs": [],
      "name": "lastTaskOrWorkerUpdate",
      "outputs": [
        {
          "internalType": "uint256",
          "name": "",
          "type": "uint256"
        }
      ],
      "stateMutability": "view",
      "type": "function"
    },
    {
      "inputs": [
        {
          "internalType": "uint256",
          "name": "",
          "type": "uint256"
        }
      ],
      "name": "taskToWorker",
      "outputs": [
        {
          "internalType": "address",
          "name": "",
          "type": "address"
        }
      ],
      "stateMutability": "view",
      "type": "function"
    },
    {
      "inputs": [
        {
          "internalType": "uint256",
          "name": "",
          "type": "uint256"
        }
      ],
      "name": "tasks",
      "outputs": [
        {
          "internalType": "uint256",
          "name": "timeRequired",
          "type": "uint256"
        },
        {
          "internalType": "uint256",
          "name": "expertiseLevel",
          "type": "uint256"
        },
        {
          "internalType": "uint256",
          "name": "hourlyWage",
          "type": "uint256"
        },
        {
          "internalType": "uint256",
          "name": "deadline",
          "type": "uint256"
        },
        {
          "internalType": "bool",
          "name": "isDivisible",
          "type": "bool"
        },
        {
          "internalType": "bool",
          "name": "isAllocated",
          "type": "bool"
        },
        {
          "internalType": "address",
          "name": "workerTaskContract",
          "type": "address"
        },
        {
          "internalType": "uint256",
          "name": "parentTaskId",
          "type": "uint256"
        }
      ],
      "stateMutability": "view",
      "type": "function"
    },
    {
      "inputs": [],
      "name": "totalTasks",
      "outputs": [
        {
          "internalType": "uint256",
          "name": "",
          "type": "uint256"
        }
      ],
      "stateMutability": "view",
      "type": "function"
    },
    {
      "inputs": [],
      "name": "totalWorkers",
      "outputs": [
        {
          "internalType": "uint256",
          "name": "",
          "type": "uint256"
        }
      ],
      "stateMutability": "view",
      "type": "function"
    },
    {
      "inputs": [
        {
          "internalType": "uint256",
          "name": "",
          "type": "uint256"
        }
      ],
      "name": "unallocatedTasks",
      "outputs": [
        {
          "internalType": "uint256",
          "name": "",
          "type": "uint256"
        }
      ],
      "stateMutability": "view",
      "type": "function"
    },
    {
      "inputs": [
        {
          "internalType": "uint256",
          "name": "",
          "type": "uint256"
        }
      ],
      "name": "unallocatedWorkers",
      "outputs": [
        {
          "internalType": "address",
          "name": "",
          "type": "address"
        }
      ],
      "stateMutability": "view",
      "type": "function"
    },
    {
      "inputs": [
        {
          "internalType": "address",
          "name": "",
          "type": "address"
        },
        {
          "internalType": "uint256",
          "name": "",
          "type": "uint256"
        }
      ],
      "name": "workerToTasks",
      "outputs": [
        {
          "internalType": "uint256",
          "name": "",
          "type": "uint256"
        }
      ],
      "stateMutability": "view",
      "type": "function"
    },
    {
      "inputs": [
        {
          "internalType": "uint256",
          "name": "",
          "type": "uint256"
        }
      ],
      "name": "workers",
      "outputs": [
        {
          "internalType": "uint256",
          "name": "availableHours",
          "type": "uint256"
        },
        {
          "internalType": "uint256",
          "name": "expertiseLevel",
          "type": "uint256"
        },
        {
          "internalType": "uint256",
          "name": "minHourlyWage",
          "type": "uint256"
        },
        {
          "internalType": "address",
          "name": "wallet",
          "type": "address"
        },
        {
          "internalType": "bool",
          "name": "isRegistered",
          "type": "bool"
        }
      ],
      "stateMutability": "view",
      "type": "function"
    },
    {
      "stateMutability": "payable",
      "type": "receive"
    },
    {
      "inputs": [
        {
          "internalType": "uint256",
          "name": "_availableHours",
          "type": "uint256"
        },
        {
          "internalType": "uint256",
          "name": "_expertiseLevel",
          "type": "uint256"
        },
        {
          "internalType": "uint256",
          "name": "_minHourlyWage",
          "type": "uint256"
        }
      ],
      "name": "registerWorker",
      "outputs": [],
      "stateMutability": "nonpayable",
      "type": "function"
    },
    {
      "inputs": [
        {
          "internalType": "uint256",
          "name": "_timeRequired",
          "type": "uint256"
        },
        {
          "internalType": "uint256",
          "name": "_expertiseLevel",
          "type": "uint256"
        },
        {
          "internalType": "uint256",
          "name": "_hourlyWage",
          "type": "uint256"
        },
        {
          "internalType": "uint256",
          "name": "_deadline",
          "type": "uint256"
        },
        {
          "internalType": "bool",
          "name": "_isDivisible",
          "type": "bool"
        },
        {
          "internalType": "uint256[]",
          "name": "_subTaskTimes",
          "type": "uint256[]"
        }
      ],
      "name": "addTask",
      "outputs": [],
      "stateMutability": "nonpayable",
      "type": "function"
    },
    {
      "inputs": [
        {
          "internalType": "uint256",
          "name": "taskId",
          "type": "uint256"
        },
        {
          "internalType": "uint256",
          "name": "workerId",
          "type": "uint256"
        }
      ],
      "name": "allocateTask",
      "outputs": [],
      "stateMutability": "nonpayable",
      "type": "function"
    },
    {
      "inputs": [
        {
          "internalType": "uint256",
          "name": "taskId",
          "type": "uint256"
        }
      ],
      "name": "getWorkerForTask",
      "outputs": [
        {
          "internalType": "address",
          "name": "",
          "type": "address"
        }
      ],
      "stateMutability": "view",
      "type": "function"
    },
    {
      "inputs": [
        {
          "internalType": "uint256",
          "name": "workerId",
          "type": "uint256"
        }
      ],
      "name": "getWorkerDetails",
      "outputs": [
        {
          "components": [
            {
              "internalType": "uint256",
              "name": "availableHours",
              "type": "uint256"
            },
            {
              "internalType": "uint256",
              "name": "expertiseLevel",
              "type": "uint256"
            },
            {
              "internalType": "uint256",
              "name": "minHourlyWage",
              "type": "uint256"
            },
            {
              "internalType": "address",
              "name": "wallet",
              "type": "address"
            },
            {
              "internalType": "bool",
              "name": "isRegistered",
              "type": "bool"
            }
          ],
          "internalType": "struct TaskAllocation.Worker",
          "name": "",
          "type": "tuple"
        }
      ],
      "stateMutability": "view",
      "type": "function"
    },
    {
      "inputs": [
        {
          "internalType": "uint256",
          "name": "taskId",
          "type": "uint256"
        }
      ],
      "name": "getTaskDetails",
      "outputs": [
        {
          "components": [
            {
              "internalType": "uint256",
              "name": "timeRequired",
              "type": "uint256"
            },
            {
              "internalType": "uint256",
              "name": "expertiseLevel",
              "type": "uint256"
            },
            {
              "internalType": "uint256",
              "name": "hourlyWage",
              "type": "uint256"
            },
            {
              "internalType": "uint256",
              "name": "deadline",
              "type": "uint256"
            },
            {
              "internalType": "bool",
              "name": "isDivisible",
              "type": "bool"
            },
            {
              "internalType": "bool",
              "name": "isAllocated",
              "type": "bool"
            },
            {
              "internalType": "address",
              "name": "workerTaskContract",
              "type": "address"
            },
            {
              "internalType": "uint256",
              "name": "parentTaskId",
              "type": "uint256"
            }
          ],
          "internalType": "struct TaskAllocation.Task",
          "name": "",
          "type": "tuple"
        }
      ],
      "stateMutability": "view",
      "type": "function"
    },
    {
      "inputs": [],
      "name": "getAllTasks",
      "outputs": [
        {
          "components": [
            {
              "internalType": "uint256",
              "name": "timeRequired",
              "type": "uint256"
            },
            {
              "internalType": "uint256",
              "name": "expertiseLevel",
              "type": "uint256"
            },
            {
              "internalType": "uint256",
              "name": "hourlyWage",
              "type": "uint256"
            },
            {
              "internalType": "uint256",
              "name": "deadline",
              "type": "uint256"
            },
            {
              "internalType": "bool",
              "name": "isDivisible",
              "type": "bool"
            },
            {
              "internalType": "bool",
              "name": "isAllocated",
              "type": "bool"
            },
            {
              "internalType": "address",
              "name": "workerTaskContract",
              "type": "address"
            },
            {
              "internalType": "uint256",
              "name": "parentTaskId",
              "type": "uint256"
            }
          ],
          "internalType": "struct TaskAllocation.Task[]",
          "name": "",
          "type": "tuple[]"
        }
      ],
      "stateMutability": "view",
      "type": "function"
    },
    {
      "inputs": [
        {
          "internalType": "address",
          "name": "worker",
          "type": "address"
        }
      ],
      "name": "getWorkerTasks",
      "outputs": [
        {
          "internalType": "uint256[]",
          "name": "",
          "type": "uint256[]"
        }
      ],
      "stateMutability": "view",
      "type": "function"
    },
    {
      "inputs": [
        {
          "internalType": "address",
          "name": "_workerAddress",
          "type": "address"
        }
      ],
      "name": "getWorkerIdByAddress",
      "outputs": [
        {
          "internalType": "uint256",
          "name": "",
          "type": "uint256"
        }
      ],
      "stateMutability": "view",
      "type": "function"
    },
    {
      "inputs": [],
      "name": "getUnallocatedTasks",
      "outputs": [
        {
          "internalType": "uint256[]",
          "name": "",
          "type": "uint256[]"
        }
      ],
      "stateMutability": "view",
      "type": "function"
    },
    {
      "inputs": [],
      "name": "getUnallocatedWorkers",
      "outputs": [
        {
          "internalType": "address[]",
          "name": "",
          "type": "address[]"
        }
      ],
      "stateMutability": "view",
      "type": "function"
    }
  ],
  "bytecode": "0x6080604052600560045534801561001557600080fd5b50600080546001600160a01b03191633179055612283806100376000396000f3fe6080604052600436106200015f5760003560e01c80638d97767211620000c5578063cc3e13da1162000078578063cc3e13da146200051d578063d22c81e51462000542578063d5d102d0146200055a578063dd78d1c2146200057f578063f1a22dc214620005b0578063f851a440146200063f57600080fd5b80638d977672146200038e5780638ffc587c146200044b5780639becde0c1462000472578063aae895c514620004ac578063b64d083014620004d1578063c771018414620004f657600080fd5b80635fe12065116200011e5780635fe12065146200022f57806367d67c42146200028257806374e001ca14620002bc578063779900b4146200032a5780637a91e83114620003515780638a20768d146200037657600080fd5b8063381737b8146200016c5780633888b9d5146200019757806342ac4eda14620001cb5780634d9e16cb14620001e3578063528a0504146200020857600080fd5b366200016757005b600080fd5b3480156200017957600080fd5b506200018460025481565b6040519081526020015b60405180910390f35b348015620001a457600080fd5b50620001bc620001b636600462001923565b62000661565b6040516200018e919062001997565b348015620001d857600080fd5b506200018460035481565b348015620001f057600080fd5b506200018462000202366004620019cb565b620006ed565b3480156200021557600080fd5b506200022d6200022736600462001a0e565b6200071f565b005b3480156200023c57600080fd5b50620002696200024e36600462001923565b6007602052600090815260409020546001600160a01b031681565b6040516001600160a01b0390911681526020016200018e565b3480156200028f57600080fd5b5062000184620002a136600462001b18565b6001600160a01b031660009081526009602052604090205490565b348015620002c957600080fd5b50620002e1620002db36600462001923565b62000938565b6040516200018e91908151815260208083015190820152604080830151908201526060808301516001600160a01b03169082015260809182015115159181019190915260a00190565b3480156200033757600080fd5b5062000342620009d6565b6040516200018e919062001b3d565b3480156200035e57600080fd5b506200022d6200037036600462001b90565b62000b02565b3480156200038357600080fd5b506200018460045481565b3480156200039b57600080fd5b5062000402620003ad36600462001923565b600660205260009081526040902080546001820154600283015460038401546004850154600590950154939492939192909160ff80831692610100810490911691620100009091046001600160a01b03169088565b60408051988952602089019790975295870194909452606086019290925215156080850152151560a08401526001600160a01b031660c083015260e0820152610100016200018e565b3480156200045857600080fd5b506200046362000c2f565b6040516200018e919062001bfa565b3480156200047f57600080fd5b50620002696200049136600462001923565b6000908152600760205260409020546001600160a01b031690565b348015620004b957600080fd5b5062000463620004cb36600462001b18565b62000c89565b348015620004de57600080fd5b506200022d620004f036600462001c0f565b62000cf7565b3480156200050357600080fd5b506200050e620010c6565b6040516200018e919062001c32565b3480156200052a57600080fd5b50620002696200053c36600462001923565b62001129565b3480156200054f57600080fd5b506200018460015481565b3480156200056757600080fd5b50620001846200057936600462001923565b62001154565b3480156200058c57600080fd5b50620001846200059e36600462001b18565b60096020526000908152604090205481565b348015620005bd57600080fd5b506200060b620005cf36600462001923565b6005602052600090815260409020805460018201546002830154600390930154919290916001600160a01b03811690600160a01b900460ff1685565b604080519586526020860194909452928401919091526001600160a01b031660608301521515608082015260a0016200018e565b3480156200064c57600080fd5b5060005462000269906001600160a01b031681565b6200066b620018c3565b50600090815260066020908152604091829020825161010080820185528254825260018301549382019390935260028201549381019390935260038101546060840152600481015460ff80821615156080860152928104909216151560a0840152620100009091046001600160a01b031660c08301526005015460e082015290565b600860205281600052604060002081815481106200070a57600080fd5b90600052602060002001600091509150505481565b6000546001600160a01b03163314620007555760405162461bcd60e51b81526004016200074c9062001c75565b60405180910390fd5b60018054906000620007678362001ccc565b90915550506040805161010080820183528882526020808301898152838501898152606085018981528815801560808801908152600060a0890181815260c08a0182815260e08b018381526001805485526006909a529b90922099518a55955196890196909655925160028801559051600387015590516004860180549351945161ffff1990941691151561ff001916919091179315159094029290921762010000600160b01b031916620100006001600160a01b0390921691909102179091559151600590910155620008b4576000815111620008a05760405162461bcd60e51b815260206004820152602f60248201527f5375622d7461736b2074696d65732061726520726571756972656420666f722060448201526e646976697369626c65207461736b7360881b60648201526084016200074c565b620008ae6001548262001176565b620008ea565b60018054600a805492830181556000527fc65a7bb8d6351c1cf70c95a316cc6a92839c986682d98bc35f958f4883f9d2a8909101555b60015460408051918252602082018890527f8baba1305291ce5789b342eddc456ab24d87be77eba1ead28ecabf369ffa01de910160405180910390a162000930620015f1565b505050505050565b620009766040518060a0016040528060008152602001600081526020016000815260200160006001600160a01b031681526020016000151581525090565b50600090815260056020908152604091829020825160a081018452815481526001820154928101929092526002810154928201929092526003909101546001600160a01b0381166060830152600160a01b900460ff161515608082015290565b6060600060015467ffffffffffffffff811115620009f857620009f8620019f8565b60405190808252806020026020018201604052801562000a3557816020015b62000a21620018c3565b81526020019060019003908162000a175790505b50905060005b60015481101562000afc57600081815260066020908152604091829020825161010080820185528254825260018301549382019390935260028201549381019390935260038101546060840152600481015460ff80821615156080860152928104909216151560a0840152620100009091046001600160a01b031660c08301526005015460e0820152825183908390811062000adb5762000adb62001ce8565b6020026020010181905250808062000af39062001ccc565b91505062000a3b565b50919050565b6002805490600062000b148362001ccc565b90915550506040805160a08101825284815260208082018581528284018581523360608501818152600160808701818152600280546000908152600589528a812099518a5596518984015594518886015591516003909701805492511515600160a01b026001600160a81b03199093166001600160a01b03909816979097179190911790955581548184526009855286842055600b805495860181559092527f0175b7a638427703f0dbe7bb9bbf987a2551717b34e79f33b5b1008d1fa01db990930180546001600160a01b0319168217905591548351908152908101919091527f19722814ba41ad5b14adc068280d562e1e724a09771a05f46b37d71782b1459b910160405180910390a162000c2a620015f1565b505050565b6060600a80548060200260200160405190810160405280929190818152602001828054801562000c7f57602002820191906000526020600020905b81548152602001906001019080831162000c6a575b5050505050905090565b6001600160a01b03811660009081526008602090815260409182902080548351818402810184019094528084526060939283018282801562000ceb57602002820191906000526020600020905b81548152602001906001019080831162000cd6575b50505050509050919050565b6000546001600160a01b0316331462000d245760405162461bcd60e51b81526004016200074c9062001c75565b600082815260066020908152604080832084845260059092529091206004820154610100900460ff161562000d955760405162461bcd60e51b815260206004820152601660248201527515185cdac8185b1c9958591e48185b1b1bd8d85d195960521b60448201526064016200074c565b6003810154600160a01b900460ff1662000df25760405162461bcd60e51b815260206004820152601860248201527f576f726b6572206973206e6f742072656769737465726564000000000000000060448201526064016200074c565b81548154101562000e5a5760405162461bcd60e51b815260206004820152602b60248201527f576f726b657220646f6573206e6f74206861766520656e6f756768206176616960448201526a6c61626c6520686f75727360a81b60648201526084016200074c565b81600101548160010154101562000eca5760405162461bcd60e51b815260206004820152602d60248201527f576f726b657220646f6573206e6f74206861766520726571756972656420657860448201526c1c195c9d1a5cd9481b195d995b609a1b60648201526084016200074c565b80600201548260020154101562000f4a5760405162461bcd60e51b815260206004820152603960248201527f486f75726c792077616765206973206c657373207468616e20776f726b65722760448201527f73206d696e696d756d2061636365707461626c6520776167650000000000000060648201526084016200074c565b60048201805461ff0019166101001790556000805460038084015485546002870154928701546040516001600160a01b03958616959390931693919262000f919062001915565b6001600160a01b03958616815294909316602085015260408401919091526060830152608082015260a001604051809103906000f08015801562000fd9573d6000803e3d6000fd5b506004840180546001600160a01b03808416620100000262010000600160b01b031990921691909117909155600384018054600089815260076020908152604080832080546001600160a01b031916948716949094179093559254909316835260088252822080546001810182559083529082200187905584548454929350918491906200106990849062001cfe565b90915550506003820154604080518781526001600160a01b039283166020820152918316908201527fe2473aa0bacaccacc53288ccd010dbc69eef760769546be396ce646e8a38f3ca906060015b60405180910390a15050505050565b6060600b80548060200260200160405190810160405280929190818152602001828054801562000c7f57602002820191906000526020600020905b81546001600160a01b0316815260019091019060200180831162001101575050505050905090565b600b81815481106200113a57600080fd5b6000918252602090912001546001600160a01b0316905081565b600a81815481106200116557600080fd5b600091825260209091200154905081565b6000828152600660205260409020600481015460ff16620011d25760405162461bcd60e51b81526020600482015260156024820152745461736b206973206e6f7420646976697369626c6560581b60448201526064016200074c565b6004810154610100900460ff16156200122e5760405162461bcd60e51b815260206004820152601960248201527f5461736b20697320616c726561647920616c6c6f63617465640000000000000060448201526064016200074c565b6000805b83518110156200127d5783818151811062001251576200125162001ce8565b60200260200101518262001266919062001d14565b915080620012748162001ccc565b91505062001232565b5081548114620012e95760405162461bcd60e51b815260206004820152603060248201527f5375622d7461736b732074696d65206d757374206d6174636820746865206f7260448201526f6967696e616c207461736b2074696d6560801b60648201526084016200074c565b6000835167ffffffffffffffff811115620013085762001308620019f8565b60405190808252806020026020018201604052801562001332578160200160208202803683370190505b50905060005b8451811015620014ef5760018054906000620013548362001ccc565b91905055506040518061010001604052808683815181106200137a576200137a62001ce8565b6020026020010151815260200185600101548152602001856002015481526020018560030154815260200160001515815260200160001515815260200160006001600160a01b03168152602001878152506006600060015481526020019081526020016000206000820151816000015560208201518160010155604082015181600201556060820151816003015560808201518160040160006101000a81548160ff02191690831515021790555060a08201518160040160016101000a81548160ff02191690831515021790555060c08201518160040160026101000a8154816001600160a01b0302191690836001600160a01b0316021790555060e082015181600501559050506001548282815181106200149a576200149a62001ce8565b602090810291909101015260018054600a805492830181556000527fc65a7bb8d6351c1cf70c95a316cc6a92839c986682d98bc35f958f4883f9d2a89091015580620014e68162001ccc565b91505062001338565b5060005b600a54811015620015bd5785600a828154811062001515576200151562001ce8565b906000526020600020015403620015a857600a8054620015389060019062001cfe565b815481106200154b576200154b62001ce8565b9060005260206000200154600a82815481106200156c576200156c62001ce8565b600091825260209091200155600a8054806200158c576200158c62001d2a565b60019003818190600052602060002001600090559055620015bd565b80620015b48162001ccc565b915050620014f3565b507f6bd907d8113e7f1e5dbb090c8dce48ce3f4fb26e6191cd66d4ebc0c555b4a9248582604051620010b792919062001d40565b60005b600a54811015620018bc576000600a828154811062001617576200161762001ce8565b60009182526020808320909101548083526006909152604090912060048101549192509060ff61010090910416620018a4576000600019815b600b548110156200174c576000600b828154811062001673576200167362001ce8565b60009182526020808320909101546001600160a01b03168083526009825260408084205480855260059093528320600181810154908a015492955092939092909111620016d65787600101548260010154620016d0919062001cfe565b620016ec565b81600101548860010154620016ec919062001cfe565b88548354919250118015906200170457506004548111155b80156200171957508160020154886002015410155b80156200172557508581105b1562001732578396508095505b505050508080620017439062001ccc565b91505062001650565b506001600160a01b03821615620018a1576001600160a01b0382166000908152600960205260409020546200178390859062000cf7565b60005b600b548110156200189f57826001600160a01b0316600b8281548110620017b157620017b162001ce8565b6000918252602090912001546001600160a01b0316036200188a57600b8054620017de9060019062001cfe565b81548110620017f157620017f162001ce8565b600091825260209091200154600b80546001600160a01b03909216918390811062001820576200182062001ce8565b9060005260206000200160006101000a8154816001600160a01b0302191690836001600160a01b03160217905550600b80548062001862576200186262001d2a565b600082815260209020810160001990810180546001600160a01b03191690550190556200189f565b80620018968162001ccc565b91505062001786565b505b50505b50508080620018b39062001ccc565b915050620015f4565b5042600355565b6040518061010001604052806000815260200160008152602001600081526020016000815260200160001515815260200160001515815260200160006001600160a01b03168152602001600081525090565b6104ea8062001d6483390190565b6000602082840312156200193657600080fd5b5035919050565b8051825260208101516020830152604081015160408301526060810151606083015260808101511515608083015260a0810151151560a083015260018060a01b0360c08201511660c083015260e081015160e08301525050565b6101008101620019a882846200193d565b92915050565b80356001600160a01b0381168114620019c657600080fd5b919050565b60008060408385031215620019df57600080fd5b620019ea83620019ae565b946020939093013593505050565b634e487b7160e01b600052604160045260246000fd5b60008060008060008060c0878903121562001a2857600080fd5b86359550602080880135955060408801359450606088013593506080880135801515811462001a5657600080fd5b925060a088013567ffffffffffffffff8082111562001a7457600080fd5b818a0191508a601f83011262001a8957600080fd5b81358181111562001a9e5762001a9e620019f8565b8060051b604051601f19603f8301168101818110858211171562001ac65762001ac6620019f8565b60405291825284820192508381018501918d83111562001ae557600080fd5b938501935b8285101562001b055784358452938501939285019262001aea565b8096505050505050509295509295509295565b60006020828403121562001b2b57600080fd5b62001b3682620019ae565b9392505050565b6020808252825182820181905260009190848201906040850190845b8181101562001b845762001b6f8385516200193d565b92840192610100929092019160010162001b59565b50909695505050505050565b60008060006060848603121562001ba657600080fd5b505081359360208301359350604090920135919050565b600081518084526020808501945080840160005b8381101562001bef5781518752958201959082019060010162001bd1565b509495945050505050565b60208152600062001b36602083018462001bbd565b6000806040838503121562001c2357600080fd5b50508035926020909101359150565b6020808252825182820181905260009190848201906040850190845b8181101562001b845783516001600160a01b03168352928401929184019160010162001c4e565b60208082526021908201527f4f6e6c792061646d696e2063616e2063616c6c20746869732066756e6374696f6040820152603760f91b606082015260800190565b634e487b7160e01b600052601160045260246000fd5b60006001820162001ce15762001ce162001cb6565b5060010190565b634e487b7160e01b600052603260045260246000fd5b81810381811115620019a857620019a862001cb6565b80820180821115620019a857620019a862001cb6565b634e487b7160e01b600052603160045260246000fd5b82815260406020820152600062001d5b604083018462001bbd565b94935050505056fe608060405234801561001057600080fd5b506040516104ea3803806104ea83398101604081905261002f91610096565b600080546001600160a01b039687166001600160a01b03199182161790915560018054959096169416939093179093556002556003919091556004556005805460ff191690556100e4565b80516001600160a01b038116811461009157600080fd5b919050565b600080600080600060a086880312156100ae57600080fd5b6100b78661007a565b94506100c56020870161007a565b6040870151606088015160809098015196999198509695945092505050565b6103f7806100f36000396000f3fe6080604052600436106100745760003560e01c80634d547ada1161004e5780634d547ada146100d65780635ce6dc0a1461010e578063f7317f0014610124578063f851a4401461014e57600080fd5b806329dcb0cf146100805780632acd2087146100a957806343bb8db5146100bf57600080fd5b3661007b57005b600080fd5b34801561008c57600080fd5b5061009660045481565b6040519081526020015b60405180910390f35b3480156100b557600080fd5b5061009660035481565b3480156100cb57600080fd5b506100d461016e565b005b3480156100e257600080fd5b506001546100f6906001600160a01b031681565b6040516001600160a01b0390911681526020016100a0565b34801561011a57600080fd5b5061009660025481565b34801561013057600080fd5b5060055461013e9060ff1681565b60405190151581526020016100a0565b34801561015a57600080fd5b506000546100f6906001600160a01b031681565b6001546001600160a01b031633146101e55760405162461bcd60e51b815260206004820152602f60248201527f4f6e6c79207468652061737369676e656420776f726b65722063616e2063616c60448201526e36103a3434b990333ab731ba34b7b760891b60648201526084015b60405180910390fd5b6004544210156102485760405162461bcd60e51b815260206004820152602860248201527f43616e6e6f7420636f6d706c657465207461736b206265666f72652074686520604482015267646561646c696e6560c01b60648201526084016101dc565b60055460ff16156102945760405162461bcd60e51b815260206004820152601660248201527515185cdac8185b1c9958591e4818dbdb5c1b195d195960521b60448201526064016101dc565b60006003546002546102a69190610396565b6001546040519192506000916001600160a01b039091169083908381818185875af1925050503d80600081146102f8576040519150601f19603f3d011682016040523d82523d6000602084013e6102fd565b606091505b505090508061033f5760405162461bcd60e51b815260206004820152600e60248201526d14185e5b595b9d0819985a5b195960921b60448201526064016101dc565b6005805460ff1916600190811790915554604080518481526001600160a01b0390921660208301527fbb5889c77948badf90e8a5c73d55265e5f5d6e4837a79a78c5669691b897faed910160405180910390a15050565b80820281158282048414176103bb57634e487b7160e01b600052601160045260246000fd5b9291505056fea2646970667358221220158cbedf006cafbc0f5c97b0649649fabd0cc1c05f9fea18cd71c4129a06d70264736f6c63430008130033a2646970667358221220cf73de013c7d84da12dc05eccb9201ec96c63edfdca984839a77b978ad987c5564736f6c63430008130033",
  "immutableReferences": {},
  "source": "// SPDX-License-Identifier: MIT\r\npragma solidity ^0.8.19;\r\n\r\nimport \"./WorkerTaskContract.sol\"; // Import the WorkerTaskContract\r\n\r\ncontract TaskAllocation {\r\n    struct Worker {\r\n        uint availableHours;\r\n        uint expertiseLevel;\r\n        uint minHourlyWage;\r\n        address wallet;\r\n        bool isRegistered;\r\n    }\r\n\r\n    struct Task {\r\n        uint timeRequired;\r\n        uint expertiseLevel;\r\n        uint hourlyWage;\r\n        uint deadline;\r\n        bool isDivisible;\r\n        bool isAllocated;\r\n        address workerTaskContract; // Store the address of the WorkerTaskContract\r\n        uint parentTaskId; // Parent Task ID if this is a sub-task\r\n    }\r\n\r\n    address public admin;\r\n    uint public totalTasks;\r\n    uint public totalWorkers;\r\n    uint public lastTaskOrWorkerUpdate; // To track the last update\r\n    uint public allocationGapLimit = 5; // Expertise gap limit\r\n    mapping(uint => Worker) public workers;\r\n    mapping(uint => Task) public tasks;\r\n    mapping(uint => address) public taskToWorker;\r\n    mapping(address => uint[]) public workerToTasks;\r\n    mapping(address => uint) public addressToWorkerId; // Mapping from address to worker ID\r\n\r\n    uint[] public unallocatedTasks;\r\n    address[] public unallocatedWorkers;\r\n\r\n    event WorkerRegistered(uint workerId, address wallet);\r\n    event TaskAdded(uint taskId, uint timeRequired);\r\n    event TaskAllocated(uint taskId, address worker, address workerTaskContract);\r\n    event TaskSplit(uint originalTaskId, uint[] subTaskIds); // New event for task splitting\r\n\r\n    constructor() {\r\n        admin = msg.sender;\r\n    }\r\n\r\n    modifier onlyAdmin() {\r\n        require(msg.sender == admin, \"Only admin can call this function\");\r\n        _;\r\n    }\r\n\r\n    function registerWorker(uint _availableHours, uint _expertiseLevel, uint _minHourlyWage) public {\r\n        totalWorkers++;\r\n        workers[totalWorkers] = Worker({\r\n            availableHours: _availableHours,\r\n            expertiseLevel: _expertiseLevel,\r\n            minHourlyWage: _minHourlyWage,\r\n            wallet: msg.sender,\r\n            isRegistered: true\r\n        });\r\n        addressToWorkerId[msg.sender] = totalWorkers; // Map address to worker ID\r\n\r\n        // Add to unallocated workers list\r\n        unallocatedWorkers.push(msg.sender);\r\n        \r\n        emit WorkerRegistered(totalWorkers, msg.sender);\r\n        \r\n        // Attempt task allocation after a new worker is registered\r\n        allocateTasksAutomatically();\r\n    }\r\n\r\n    function addTask(uint _timeRequired, uint _expertiseLevel, uint _hourlyWage, uint _deadline, bool _isDivisible, uint[] memory _subTaskTimes) public onlyAdmin {\r\n        totalTasks++;\r\n        tasks[totalTasks] = Task({\r\n            timeRequired: _timeRequired,\r\n            expertiseLevel: _expertiseLevel,\r\n            hourlyWage: _hourlyWage,\r\n            deadline: _deadline,\r\n            isDivisible: _isDivisible,\r\n            isAllocated: false,\r\n            workerTaskContract: address(0), // Initially no contract is assigned\r\n            parentTaskId: 0 // 0 indicates no parent task\r\n        });\r\n\r\n        // If the task is divisible, split it into sub-tasks\r\n        if (_isDivisible) {\r\n            require(_subTaskTimes.length > 0, \"Sub-task times are required for divisible tasks\");\r\n            splitTask(totalTasks, _subTaskTimes);\r\n        } else {\r\n            // Add to unallocated tasks list\r\n            unallocatedTasks.push(totalTasks);\r\n        }\r\n\r\n        emit TaskAdded(totalTasks, _timeRequired);\r\n        \r\n        // Attempt task allocation after a new task is added\r\n        allocateTasksAutomatically();\r\n    }\r\n\r\n    function splitTask(uint taskId, uint[] memory subTaskTimes) internal {\r\n        Task storage task = tasks[taskId];\r\n        require(task.isDivisible, \"Task is not divisible\");\r\n        require(!task.isAllocated, \"Task is already allocated\");\r\n\r\n        uint totalSubTime = 0;\r\n        for (uint i = 0; i < subTaskTimes.length; i++) {\r\n            totalSubTime += subTaskTimes[i];\r\n        }\r\n        require(totalSubTime == task.timeRequired, \"Sub-tasks time must match the original task time\");\r\n\r\n        uint[] memory subTaskIds = new uint[](subTaskTimes.length);\r\n\r\n        for (uint i = 0; i < subTaskTimes.length; i++) {\r\n            totalTasks++;\r\n            tasks[totalTasks] = Task({\r\n                timeRequired: subTaskTimes[i],\r\n                expertiseLevel: task.expertiseLevel,\r\n                hourlyWage: task.hourlyWage,\r\n                deadline: task.deadline,\r\n                isDivisible: false, // Sub-tasks are not further divisible\r\n                isAllocated: false,\r\n                workerTaskContract: address(0),\r\n                parentTaskId: taskId // Set the parent task ID\r\n            });\r\n\r\n            subTaskIds[i] = totalTasks;\r\n            unallocatedTasks.push(totalTasks);\r\n        }\r\n\r\n        // Remove the original divisible task from the unallocated tasks list\r\n        for (uint i = 0; i < unallocatedTasks.length; i++) {\r\n            if (unallocatedTasks[i] == taskId) {\r\n                unallocatedTasks[i] = unallocatedTasks[unallocatedTasks.length - 1];\r\n                unallocatedTasks.pop();\r\n                break;\r\n            }\r\n        }\r\n\r\n        emit TaskSplit(taskId, subTaskIds);\r\n    }\r\n\r\n    function allocateTasksAutomatically() internal {\r\n        for (uint i = 0; i < unallocatedTasks.length; i++) {\r\n            uint taskId = unallocatedTasks[i];\r\n            Task storage task = tasks[taskId];\r\n            if (!task.isAllocated) {\r\n                address bestWorker = address(0);\r\n                uint minExpertiseGap = type(uint).max;\r\n                \r\n                for (uint j = 0; j < unallocatedWorkers.length; j++) {\r\n                    address workerAddress = unallocatedWorkers[j];\r\n                    uint workerId = addressToWorkerId[workerAddress];\r\n                    Worker storage worker = workers[workerId];\r\n                    \r\n                    uint expertiseGap = task.expertiseLevel > worker.expertiseLevel ? task.expertiseLevel - worker.expertiseLevel : worker.expertiseLevel - task.expertiseLevel;\r\n                    \r\n                    if (worker.availableHours >= task.timeRequired &&\r\n                        expertiseGap <= allocationGapLimit &&\r\n                        task.hourlyWage >= worker.minHourlyWage &&\r\n                        expertiseGap < minExpertiseGap) {\r\n                            \r\n                        bestWorker = workerAddress;\r\n                        minExpertiseGap = expertiseGap;\r\n                    }\r\n                }\r\n                \r\n                if (bestWorker != address(0)) {\r\n                    allocateTask(taskId, addressToWorkerId[bestWorker]);\r\n                    // Remove allocated worker from the unallocated workers list\r\n                    for (uint k = 0; k < unallocatedWorkers.length; k++) {\r\n                        if (unallocatedWorkers[k] == bestWorker) {\r\n                            unallocatedWorkers[k] = unallocatedWorkers[unallocatedWorkers.length - 1];\r\n                            unallocatedWorkers.pop();\r\n                            break;\r\n                        }\r\n                    }\r\n                }\r\n            }\r\n        }\r\n        \r\n        lastTaskOrWorkerUpdate = block.timestamp; // Update last task or worker update timestamp\r\n    }\r\n\r\n    function allocateTask(uint taskId, uint workerId) public onlyAdmin {\r\n        Task storage task = tasks[taskId];\r\n        Worker storage worker = workers[workerId];\r\n\r\n        require(!task.isAllocated, \"Task already allocated\");\r\n        require(worker.isRegistered, \"Worker is not registered\");\r\n        require(worker.availableHours >= task.timeRequired, \"Worker does not have enough available hours\");\r\n        require(worker.expertiseLevel >= task.expertiseLevel, \"Worker does not have required expertise level\");\r\n        require(task.hourlyWage >= worker.minHourlyWage, \"Hourly wage is less than worker's minimum acceptable wage\");\r\n\r\n        task.isAllocated = true;\r\n\r\n        // Deploy a new WorkerTaskContract\r\n        WorkerTaskContract workerTaskContract = new WorkerTaskContract(\r\n            admin,\r\n            worker.wallet,\r\n            task.timeRequired,\r\n            task.hourlyWage,\r\n            task.deadline\r\n        );\r\n\r\n        task.workerTaskContract = address(workerTaskContract);\r\n        taskToWorker[taskId] = worker.wallet;\r\n        workerToTasks[worker.wallet].push(taskId);\r\n        worker.availableHours -= task.timeRequired;\r\n\r\n        emit TaskAllocated(taskId, worker.wallet, address(workerTaskContract));\r\n    }\r\n\r\n    function getWorkerForTask(uint taskId) public view returns (address) {\r\n        return taskToWorker[taskId];\r\n    }\r\n\r\n    function getWorkerDetails(uint workerId) public view returns (Worker memory) {\r\n        return workers[workerId];\r\n    }\r\n\r\n    function getTaskDetails(uint taskId) public view returns (Task memory) {\r\n        return tasks[taskId];\r\n    }\r\n\r\n    function getAllTasks() public view returns (Task[] memory) {\r\n        Task[] memory allTasks = new Task[](totalTasks);\r\n        for (uint i = 0; i < totalTasks; i++) {\r\n            allTasks[i] = tasks[i];\r\n        }\r\n        return allTasks;\r\n    }\r\n\r\n    function getWorkerTasks(address worker) public view returns (uint[] memory) {\r\n        return workerToTasks[worker];\r\n    }\r\n\r\n    function getWorkerIdByAddress(address _workerAddress) public view returns (uint) {\r\n        return addressToWorkerId[_workerAddress];\r\n    }\r\n\r\n    function getUnallocatedTasks() public view returns (uint[] memory) {\r\n        return unallocatedTasks;\r\n    }\r\n\r\n    function getUnallocatedWorkers() public view returns (address[] memory) {\r\n        return unallocatedWorkers;\r\n    }\r\n\r\n    receive() external payable {}\r\n}\r\n",
  "sourcePath": "C:\\Users\\shrey\\Dropbox\\PC\\Desktop\\takneek\\midprep-pclub2\\contracts\\Task_Allocation.sol",
  "compiler": {
    "name": "solc",
    "version": "0.8.19+commit.7dd6d404.Emscripten.clang"
  },
  "schemaVersion": "3.4.16",
  "updatedAt": "2024-09-04T14:39:26.772Z",
  "devdoc": {
    "kind": "dev",
    "methods": {},
    "version": 1
  },
  "userdoc": {
    "kind": "user",
    "methods": {},
    "version": 1
  }
}