{
  "contractName": "TaskAllocation",
  "abi": [
    {
      "inputs": [],
      "stateMutability": "nonpayable",
      "type": "constructor"
    },
    {
      "anonymous": false,
      "inputs": [
        {
          "indexed": false,
          "internalType": "uint256",
          "name": "taskId",
          "type": "uint256"
        },
        {
          "indexed": false,
          "internalType": "uint256",
          "name": "timeRequired",
          "type": "uint256"
        }
      ],
      "name": "TaskAdded",
      "type": "event"
    },
    {
      "anonymous": false,
      "inputs": [
        {
          "indexed": false,
          "internalType": "uint256",
          "name": "taskId",
          "type": "uint256"
        },
        {
          "indexed": false,
          "internalType": "address",
          "name": "worker",
          "type": "address"
        },
        {
          "indexed": false,
          "internalType": "address",
          "name": "workerTaskContract",
          "type": "address"
        }
      ],
      "name": "TaskAllocated",
      "type": "event"
    },
    {
      "anonymous": false,
      "inputs": [
        {
          "indexed": false,
          "internalType": "uint256",
          "name": "workerId",
          "type": "uint256"
        },
        {
          "indexed": false,
          "internalType": "address",
          "name": "wallet",
          "type": "address"
        }
      ],
      "name": "WorkerRegistered",
      "type": "event"
    },
    {
      "inputs": [
        {
          "internalType": "address",
          "name": "",
          "type": "address"
        }
      ],
      "name": "addressToWorkerId",
      "outputs": [
        {
          "internalType": "uint256",
          "name": "",
          "type": "uint256"
        }
      ],
      "stateMutability": "view",
      "type": "function"
    },
    {
      "inputs": [],
      "name": "admin",
      "outputs": [
        {
          "internalType": "address",
          "name": "",
          "type": "address"
        }
      ],
      "stateMutability": "view",
      "type": "function"
    },
    {
      "inputs": [],
      "name": "allocationGapLimit",
      "outputs": [
        {
          "internalType": "uint256",
          "name": "",
          "type": "uint256"
        }
      ],
      "stateMutability": "view",
      "type": "function"
    },
    {
      "inputs": [],
      "name": "lastTaskOrWorkerUpdate",
      "outputs": [
        {
          "internalType": "uint256",
          "name": "",
          "type": "uint256"
        }
      ],
      "stateMutability": "view",
      "type": "function"
    },
    {
      "inputs": [
        {
          "internalType": "uint256",
          "name": "",
          "type": "uint256"
        }
      ],
      "name": "taskToWorker",
      "outputs": [
        {
          "internalType": "address",
          "name": "",
          "type": "address"
        }
      ],
      "stateMutability": "view",
      "type": "function"
    },
    {
      "inputs": [
        {
          "internalType": "uint256",
          "name": "",
          "type": "uint256"
        }
      ],
      "name": "tasks",
      "outputs": [
        {
          "internalType": "uint256",
          "name": "timeRequired",
          "type": "uint256"
        },
        {
          "internalType": "uint256",
          "name": "expertiseLevel",
          "type": "uint256"
        },
        {
          "internalType": "uint256",
          "name": "hourlyWage",
          "type": "uint256"
        },
        {
          "internalType": "uint256",
          "name": "deadline",
          "type": "uint256"
        },
        {
          "internalType": "bool",
          "name": "isDivisible",
          "type": "bool"
        },
        {
          "internalType": "bool",
          "name": "isAllocated",
          "type": "bool"
        },
        {
          "internalType": "address",
          "name": "workerTaskContract",
          "type": "address"
        }
      ],
      "stateMutability": "view",
      "type": "function"
    },
    {
      "inputs": [],
      "name": "totalTasks",
      "outputs": [
        {
          "internalType": "uint256",
          "name": "",
          "type": "uint256"
        }
      ],
      "stateMutability": "view",
      "type": "function"
    },
    {
      "inputs": [],
      "name": "totalWorkers",
      "outputs": [
        {
          "internalType": "uint256",
          "name": "",
          "type": "uint256"
        }
      ],
      "stateMutability": "view",
      "type": "function"
    },
    {
      "inputs": [
        {
          "internalType": "uint256",
          "name": "",
          "type": "uint256"
        }
      ],
      "name": "unallocatedTasks",
      "outputs": [
        {
          "internalType": "uint256",
          "name": "",
          "type": "uint256"
        }
      ],
      "stateMutability": "view",
      "type": "function"
    },
    {
      "inputs": [
        {
          "internalType": "uint256",
          "name": "",
          "type": "uint256"
        }
      ],
      "name": "unallocatedWorkers",
      "outputs": [
        {
          "internalType": "address",
          "name": "",
          "type": "address"
        }
      ],
      "stateMutability": "view",
      "type": "function"
    },
    {
      "inputs": [
        {
          "internalType": "address",
          "name": "",
          "type": "address"
        },
        {
          "internalType": "uint256",
          "name": "",
          "type": "uint256"
        }
      ],
      "name": "workerToTasks",
      "outputs": [
        {
          "internalType": "uint256",
          "name": "",
          "type": "uint256"
        }
      ],
      "stateMutability": "view",
      "type": "function"
    },
    {
      "inputs": [
        {
          "internalType": "uint256",
          "name": "",
          "type": "uint256"
        }
      ],
      "name": "workers",
      "outputs": [
        {
          "internalType": "uint256",
          "name": "availableHours",
          "type": "uint256"
        },
        {
          "internalType": "uint256",
          "name": "expertiseLevel",
          "type": "uint256"
        },
        {
          "internalType": "uint256",
          "name": "minHourlyWage",
          "type": "uint256"
        },
        {
          "internalType": "address",
          "name": "wallet",
          "type": "address"
        },
        {
          "internalType": "bool",
          "name": "isRegistered",
          "type": "bool"
        }
      ],
      "stateMutability": "view",
      "type": "function"
    },
    {
      "stateMutability": "payable",
      "type": "receive"
    },
    {
      "inputs": [
        {
          "internalType": "uint256",
          "name": "_availableHours",
          "type": "uint256"
        },
        {
          "internalType": "uint256",
          "name": "_expertiseLevel",
          "type": "uint256"
        },
        {
          "internalType": "uint256",
          "name": "_minHourlyWage",
          "type": "uint256"
        }
      ],
      "name": "registerWorker",
      "outputs": [],
      "stateMutability": "nonpayable",
      "type": "function"
    },
    {
      "inputs": [
        {
          "internalType": "uint256",
          "name": "_timeRequired",
          "type": "uint256"
        },
        {
          "internalType": "uint256",
          "name": "_expertiseLevel",
          "type": "uint256"
        },
        {
          "internalType": "uint256",
          "name": "_hourlyWage",
          "type": "uint256"
        },
        {
          "internalType": "uint256",
          "name": "_deadline",
          "type": "uint256"
        },
        {
          "internalType": "bool",
          "name": "_isDivisible",
          "type": "bool"
        },
        {
          "internalType": "uint256[]",
          "name": "_dependencies",
          "type": "uint256[]"
        }
      ],
      "name": "addTask",
      "outputs": [],
      "stateMutability": "nonpayable",
      "type": "function"
    },
    {
      "inputs": [
        {
          "internalType": "uint256",
          "name": "taskId",
          "type": "uint256"
        },
        {
          "internalType": "uint256",
          "name": "workerId",
          "type": "uint256"
        }
      ],
      "name": "allocateTask",
      "outputs": [],
      "stateMutability": "nonpayable",
      "type": "function"
    },
    {
      "inputs": [
        {
          "internalType": "uint256",
          "name": "taskId",
          "type": "uint256"
        }
      ],
      "name": "getWorkerForTask",
      "outputs": [
        {
          "internalType": "address",
          "name": "",
          "type": "address"
        }
      ],
      "stateMutability": "view",
      "type": "function"
    },
    {
      "inputs": [
        {
          "internalType": "uint256",
          "name": "workerId",
          "type": "uint256"
        }
      ],
      "name": "getWorkerDetails",
      "outputs": [
        {
          "components": [
            {
              "internalType": "uint256",
              "name": "availableHours",
              "type": "uint256"
            },
            {
              "internalType": "uint256",
              "name": "expertiseLevel",
              "type": "uint256"
            },
            {
              "internalType": "uint256",
              "name": "minHourlyWage",
              "type": "uint256"
            },
            {
              "internalType": "address",
              "name": "wallet",
              "type": "address"
            },
            {
              "internalType": "bool",
              "name": "isRegistered",
              "type": "bool"
            }
          ],
          "internalType": "struct TaskAllocation.Worker",
          "name": "",
          "type": "tuple"
        }
      ],
      "stateMutability": "view",
      "type": "function"
    },
    {
      "inputs": [
        {
          "internalType": "uint256",
          "name": "taskId",
          "type": "uint256"
        }
      ],
      "name": "getTaskDetails",
      "outputs": [
        {
          "components": [
            {
              "internalType": "uint256",
              "name": "timeRequired",
              "type": "uint256"
            },
            {
              "internalType": "uint256",
              "name": "expertiseLevel",
              "type": "uint256"
            },
            {
              "internalType": "uint256",
              "name": "hourlyWage",
              "type": "uint256"
            },
            {
              "internalType": "uint256",
              "name": "deadline",
              "type": "uint256"
            },
            {
              "internalType": "bool",
              "name": "isDivisible",
              "type": "bool"
            },
            {
              "internalType": "bool",
              "name": "isAllocated",
              "type": "bool"
            },
            {
              "internalType": "address",
              "name": "workerTaskContract",
              "type": "address"
            },
            {
              "internalType": "uint256[]",
              "name": "dependencies",
              "type": "uint256[]"
            }
          ],
          "internalType": "struct TaskAllocation.Task",
          "name": "",
          "type": "tuple"
        }
      ],
      "stateMutability": "view",
      "type": "function"
    },
    {
      "inputs": [],
      "name": "getAllTasks",
      "outputs": [
        {
          "components": [
            {
              "internalType": "uint256",
              "name": "timeRequired",
              "type": "uint256"
            },
            {
              "internalType": "uint256",
              "name": "expertiseLevel",
              "type": "uint256"
            },
            {
              "internalType": "uint256",
              "name": "hourlyWage",
              "type": "uint256"
            },
            {
              "internalType": "uint256",
              "name": "deadline",
              "type": "uint256"
            },
            {
              "internalType": "bool",
              "name": "isDivisible",
              "type": "bool"
            },
            {
              "internalType": "bool",
              "name": "isAllocated",
              "type": "bool"
            },
            {
              "internalType": "address",
              "name": "workerTaskContract",
              "type": "address"
            },
            {
              "internalType": "uint256[]",
              "name": "dependencies",
              "type": "uint256[]"
            }
          ],
          "internalType": "struct TaskAllocation.Task[]",
          "name": "",
          "type": "tuple[]"
        }
      ],
      "stateMutability": "view",
      "type": "function"
    },
    {
      "inputs": [
        {
          "internalType": "address",
          "name": "worker",
          "type": "address"
        }
      ],
      "name": "getWorkerTasks",
      "outputs": [
        {
          "internalType": "uint256[]",
          "name": "",
          "type": "uint256[]"
        }
      ],
      "stateMutability": "view",
      "type": "function"
    },
    {
      "inputs": [
        {
          "internalType": "address",
          "name": "_workerAddress",
          "type": "address"
        }
      ],
      "name": "getWorkerIdByAddress",
      "outputs": [
        {
          "internalType": "uint256",
          "name": "",
          "type": "uint256"
        }
      ],
      "stateMutability": "view",
      "type": "function"
    },
    {
      "inputs": [],
      "name": "getUnallocatedTasks",
      "outputs": [
        {
          "internalType": "uint256[]",
          "name": "",
          "type": "uint256[]"
        }
      ],
      "stateMutability": "view",
      "type": "function"
    },
    {
      "inputs": [],
      "name": "getUnallocatedWorkers",
      "outputs": [
        {
          "internalType": "address[]",
          "name": "",
          "type": "address[]"
        }
      ],
      "stateMutability": "view",
      "type": "function"
    }
  ],
  "bytecode": "0x6080604052600560045534801561001557600080fd5b50600080546001600160a01b03191633179055611ea7806100376000396000f3fe6080604052600436106200015f5760003560e01c80638d97767211620000c5578063cc3e13da1162000078578063cc3e13da146200050f578063d22c81e51462000534578063d5d102d0146200054c578063dd78d1c21462000571578063f1a22dc214620005a2578063f851a440146200063157600080fd5b80638d977672146200038e5780638ffc587c146200043d5780639becde0c1462000464578063aae895c5146200049e578063b64d083014620004c3578063c771018414620004e857600080fd5b80635fe12065116200011e5780635fe12065146200022f57806367d67c42146200028257806374e001ca14620002bc578063779900b4146200032a5780637a91e83114620003515780638a20768d146200037657600080fd5b8063381737b8146200016c5780633888b9d5146200019757806342ac4eda14620001cb5780634d9e16cb14620001e3578063528a0504146200020857600080fd5b366200016757005b600080fd5b3480156200017957600080fd5b506200018460025481565b6040519081526020015b60405180910390f35b348015620001a457600080fd5b50620001bc620001b63660046200151f565b62000653565b6040516200018e9190620015e9565b348015620001d857600080fd5b506200018460035481565b348015620001f057600080fd5b50620001846200020236600462001622565b6200072c565b3480156200021557600080fd5b506200022d6200022736600462001665565b6200075e565b005b3480156200023c57600080fd5b50620002696200024e3660046200151f565b6007602052600090815260409020546001600160a01b031681565b6040516001600160a01b0390911681526020016200018e565b3480156200028f57600080fd5b5062000184620002a13660046200176f565b6001600160a01b031660009081526009602052604090205490565b348015620002c957600080fd5b50620002e1620002db3660046200151f565b62000903565b6040516200018e91908151815260208083015190820152604080830151908201526060808301516001600160a01b03169082015260809182015115159181019190915260a00190565b3480156200033757600080fd5b5062000342620009a1565b6040516200018e91906200178d565b3480156200035e57600080fd5b506200022d62000370366004620017f3565b62000b15565b3480156200038357600080fd5b506200018460045481565b3480156200039b57600080fd5b50620003fa620003ad3660046200151f565b600660205260009081526040902080546001820154600283015460038401546004909401549293919290919060ff808216916101008104909116906201000090046001600160a01b031687565b60408051978852602088019690965294860193909352606085019190915215156080840152151560a08301526001600160a01b031660c082015260e0016200018e565b3480156200044a57600080fd5b506200045562000c42565b6040516200018e919062001820565b3480156200047157600080fd5b5062000269620004833660046200151f565b6000908152600760205260409020546001600160a01b031690565b348015620004ab57600080fd5b5062000455620004bd3660046200176f565b62000c9c565b348015620004d057600080fd5b506200022d620004e236600462001866565b62000d0a565b348015620004f557600080fd5b5062000500620010d6565b6040516200018e919062001889565b3480156200051c57600080fd5b50620002696200052e3660046200151f565b62001139565b3480156200054157600080fd5b506200018460015481565b3480156200055957600080fd5b50620001846200056b3660046200151f565b62001164565b3480156200057e57600080fd5b5062000184620005903660046200176f565b60096020526000908152604090205481565b348015620005af57600080fd5b50620005fd620005c13660046200151f565b6005602052600090815260409020805460018201546002830154600390930154919290916001600160a01b03811690600160a01b900460ff1685565b604080519586526020860194909452928401919091526001600160a01b031660608301521515608082015260a0016200018e565b3480156200063e57600080fd5b5060005462000269906001600160a01b031681565b6200065d62001458565b600082815260066020908152604091829020825161010080820185528254825260018301548285015260028301548286015260038301546060830152600483015460ff80821615156080850152918104909116151560a08301526201000090046001600160a01b031660c08201526005820180548551818602810186019096528086529194929360e086019392908301828280156200071c57602002820191906000526020600020905b81548152602001906001019080831162000707575b5050505050815250509050919050565b600860205281600052604060002081815481106200074957600080fd5b90600052602060002001600091509150505481565b6000546001600160a01b03163314620007945760405162461bcd60e51b81526004016200078b90620018cc565b60405180910390fd5b60018054906000620007a68362001923565b909155505060408051610100808201835288825260208083018981528385018981526060850189815288151560808701908152600060a0880181815260c0890182815260e08a018c815260018054855260068a529b9093208a51815596519a87019a909a559351600286015591516003850155516004840180549351985161ffff1990941691151561ff001916919091179715159095029690961762010000600160b01b031916620100006001600160a01b03909216919091021790925592518051929391926200087e9260058501920190620014aa565b505060018054600a805492830181556000527fc65a7bb8d6351c1cf70c95a316cc6a92839c986682d98bc35f958f4883f9d2a890910181905560408051918252602082018990527f8baba1305291ce5789b342eddc456ab24d87be77eba1ead28ecabf369ffa01de92500160405180910390a1620008fb62001186565b505050505050565b620009416040518060a0016040528060008152602001600081526020016000815260200160006001600160a01b031681526020016000151581525090565b50600090815260056020908152604091829020825160a081018452815481526001820154928101929092526002810154928201929092526003909101546001600160a01b0381166060830152600160a01b900460ff161515608082015290565b6060600060015467ffffffffffffffff811115620009c357620009c36200164f565b60405190808252806020026020018201604052801562000a0057816020015b620009ec62001458565b815260200190600190039081620009e25790505b50905060005b60015481101562000b0f57600081815260066020908152604091829020825161010080820185528254825260018301548285015260028301548286015260038301546060830152600483015460ff80821615156080850152918104909116151560a08301526201000090046001600160a01b031660c08201526005820180548551818602810186019096528086529194929360e0860193929083018282801562000ad057602002820191906000526020600020905b81548152602001906001019080831162000abb575b50505050508152505082828151811062000aee5762000aee6200193f565b6020026020010181905250808062000b069062001923565b91505062000a06565b50919050565b6002805490600062000b278362001923565b90915550506040805160a08101825284815260208082018581528284018581523360608501818152600160808701818152600280546000908152600589528a812099518a5596518984015594518886015591516003909701805492511515600160a01b026001600160a81b03199093166001600160a01b03909816979097179190911790955581548184526009855286842055600b805495860181559092527f0175b7a638427703f0dbe7bb9bbf987a2551717b34e79f33b5b1008d1fa01db990930180546001600160a01b0319168217905591548351908152908101919091527f19722814ba41ad5b14adc068280d562e1e724a09771a05f46b37d71782b1459b910160405180910390a162000c3d62001186565b505050565b6060600a80548060200260200160405190810160405280929190818152602001828054801562000c9257602002820191906000526020600020905b81548152602001906001019080831162000c7d575b5050505050905090565b6001600160a01b03811660009081526008602090815260409182902080548351818402810184019094528084526060939283018282801562000cfe57602002820191906000526020600020905b81548152602001906001019080831162000ce9575b50505050509050919050565b6000546001600160a01b0316331462000d375760405162461bcd60e51b81526004016200078b90620018cc565b600082815260066020908152604080832084845260059092529091206004820154610100900460ff161562000da85760405162461bcd60e51b815260206004820152601660248201527515185cdac8185b1c9958591e48185b1b1bd8d85d195960521b60448201526064016200078b565b6003810154600160a01b900460ff1662000e055760405162461bcd60e51b815260206004820152601860248201527f576f726b6572206973206e6f742072656769737465726564000000000000000060448201526064016200078b565b81548154101562000e6d5760405162461bcd60e51b815260206004820152602b60248201527f576f726b657220646f6573206e6f74206861766520656e6f756768206176616960448201526a6c61626c6520686f75727360a81b60648201526084016200078b565b81600101548160010154101562000edd5760405162461bcd60e51b815260206004820152602d60248201527f576f726b657220646f6573206e6f74206861766520726571756972656420657860448201526c1c195c9d1a5cd9481b195d995b609a1b60648201526084016200078b565b80600201548260020154101562000f5d5760405162461bcd60e51b815260206004820152603960248201527f486f75726c792077616765206973206c657373207468616e20776f726b65722760448201527f73206d696e696d756d2061636365707461626c6520776167650000000000000060648201526084016200078b565b60048201805461ff0019166101001790556000805460038084015485546002870154928701546040516001600160a01b03958616959390931693919262000fa490620014fa565b6001600160a01b03958616815294909316602085015260408401919091526060830152608082015260a001604051809103906000f08015801562000fec573d6000803e3d6000fd5b506004840180546001600160a01b03808416620100000262010000600160b01b031990921691909117909155600384018054600089815260076020908152604080832080546001600160a01b031916948716949094179093559254909316835260088252822080546001810182559083529082200187905584548454929350918491906200107c90849062001955565b90915550506003820154604080518781526001600160a01b03928316602082015291831682820152517fe2473aa0bacaccacc53288ccd010dbc69eef760769546be396ce646e8a38f3ca9181900360600190a15050505050565b6060600b80548060200260200160405190810160405280929190818152602001828054801562000c9257602002820191906000526020600020905b81546001600160a01b0316815260019091019060200180831162001111575050505050905090565b600b81815481106200114a57600080fd5b6000918252602090912001546001600160a01b0316905081565b600a81815481106200117557600080fd5b600091825260209091200154905081565b60005b600a5481101562001451576000600a8281548110620011ac57620011ac6200193f565b60009182526020808320909101548083526006909152604090912060048101549192509060ff6101009091041662001439576000600019815b600b54811015620012e1576000600b82815481106200120857620012086200193f565b60009182526020808320909101546001600160a01b03168083526009825260408084205480855260059093528320600181810154908a0154929550929390929091116200126b578760010154826001015462001265919062001955565b62001281565b8160010154886001015462001281919062001955565b88548354919250118015906200129957506004548111155b8015620012ae57508160020154886002015410155b8015620012ba57508581105b15620012c7578396508095505b505050508080620012d89062001923565b915050620011e5565b506001600160a01b0382161562001436576001600160a01b0382166000908152600960205260409020546200131890859062000d0a565b60005b600b548110156200143457826001600160a01b0316600b82815481106200134657620013466200193f565b6000918252602090912001546001600160a01b0316036200141f57600b8054620013739060019062001955565b815481106200138657620013866200193f565b600091825260209091200154600b80546001600160a01b039092169183908110620013b557620013b56200193f565b9060005260206000200160006101000a8154816001600160a01b0302191690836001600160a01b03160217905550600b805480620013f757620013f762001971565b600082815260209020810160001990810180546001600160a01b031916905501905562001434565b806200142b8162001923565b9150506200131b565b505b50505b50508080620014489062001923565b91505062001189565b5042600355565b6040518061010001604052806000815260200160008152602001600081526020016000815260200160001515815260200160001515815260200160006001600160a01b03168152602001606081525090565b828054828255906000526020600020908101928215620014e8579160200282015b82811115620014e8578251825591602001919060010190620014cb565b50620014f692915062001508565b5090565b6104ea806200198883390190565b5b80821115620014f6576000815560010162001509565b6000602082840312156200153257600080fd5b5035919050565b600081518084526020808501945080840160005b838110156200156b578151875295820195908201906001016200154d565b509495945050505050565b60006101008251845260208301516020850152604083015160408501526060830151606085015260808301511515608085015260a0830151151560a085015260018060a01b0360c08401511660c085015260e08301518160e0860152620015e08286018262001539565b95945050505050565b602081526000620015fe602083018462001576565b9392505050565b80356001600160a01b03811681146200161d57600080fd5b919050565b600080604083850312156200163657600080fd5b620016418362001605565b946020939093013593505050565b634e487b7160e01b600052604160045260246000fd5b60008060008060008060c087890312156200167f57600080fd5b863595506020808801359550604088013594506060880135935060808801358015158114620016ad57600080fd5b925060a088013567ffffffffffffffff80821115620016cb57600080fd5b818a0191508a601f830112620016e057600080fd5b813581811115620016f557620016f56200164f565b8060051b604051601f19603f830116810181811085821117156200171d576200171d6200164f565b60405291825284820192508381018501918d8311156200173c57600080fd5b938501935b828510156200175c5784358452938501939285019262001741565b8096505050505050509295509295509295565b6000602082840312156200178257600080fd5b620015fe8262001605565b6000602080830181845280855180835260408601915060408160051b870101925083870160005b82811015620017e657603f19888603018452620017d385835162001576565b94509285019290850190600101620017b4565b5092979650505050505050565b6000806000606084860312156200180957600080fd5b505081359360208301359350604090920135919050565b6020808252825182820181905260009190848201906040850190845b818110156200185a578351835292840192918401916001016200183c565b50909695505050505050565b600080604083850312156200187a57600080fd5b50508035926020909101359150565b6020808252825182820181905260009190848201906040850190845b818110156200185a5783516001600160a01b031683529284019291840191600101620018a5565b60208082526021908201527f4f6e6c792061646d696e2063616e2063616c6c20746869732066756e6374696f6040820152603760f91b606082015260800190565b634e487b7160e01b600052601160045260246000fd5b6000600182016200193857620019386200190d565b5060010190565b634e487b7160e01b600052603260045260246000fd5b818103818111156200196b576200196b6200190d565b92915050565b634e487b7160e01b600052603160045260246000fdfe608060405234801561001057600080fd5b506040516104ea3803806104ea83398101604081905261002f91610096565b600080546001600160a01b039687166001600160a01b03199182161790915560018054959096169416939093179093556002556003919091556004556005805460ff191690556100e4565b80516001600160a01b038116811461009157600080fd5b919050565b600080600080600060a086880312156100ae57600080fd5b6100b78661007a565b94506100c56020870161007a565b6040870151606088015160809098015196999198509695945092505050565b6103f7806100f36000396000f3fe6080604052600436106100745760003560e01c80634d547ada1161004e5780634d547ada146100d65780635ce6dc0a1461010e578063f7317f0014610124578063f851a4401461014e57600080fd5b806329dcb0cf146100805780632acd2087146100a957806343bb8db5146100bf57600080fd5b3661007b57005b600080fd5b34801561008c57600080fd5b5061009660045481565b6040519081526020015b60405180910390f35b3480156100b557600080fd5b5061009660035481565b3480156100cb57600080fd5b506100d461016e565b005b3480156100e257600080fd5b506001546100f6906001600160a01b031681565b6040516001600160a01b0390911681526020016100a0565b34801561011a57600080fd5b5061009660025481565b34801561013057600080fd5b5060055461013e9060ff1681565b60405190151581526020016100a0565b34801561015a57600080fd5b506000546100f6906001600160a01b031681565b6001546001600160a01b031633146101e55760405162461bcd60e51b815260206004820152602f60248201527f4f6e6c79207468652061737369676e656420776f726b65722063616e2063616c60448201526e36103a3434b990333ab731ba34b7b760891b60648201526084015b60405180910390fd5b6004544210156102485760405162461bcd60e51b815260206004820152602860248201527f43616e6e6f7420636f6d706c657465207461736b206265666f72652074686520604482015267646561646c696e6560c01b60648201526084016101dc565b60055460ff16156102945760405162461bcd60e51b815260206004820152601660248201527515185cdac8185b1c9958591e4818dbdb5c1b195d195960521b60448201526064016101dc565b60006003546002546102a69190610396565b6001546040519192506000916001600160a01b039091169083908381818185875af1925050503d80600081146102f8576040519150601f19603f3d011682016040523d82523d6000602084013e6102fd565b606091505b505090508061033f5760405162461bcd60e51b815260206004820152600e60248201526d14185e5b595b9d0819985a5b195960921b60448201526064016101dc565b6005805460ff1916600190811790915554604080518481526001600160a01b0390921660208301527fbb5889c77948badf90e8a5c73d55265e5f5d6e4837a79a78c5669691b897faed910160405180910390a15050565b80820281158282048414176103bb57634e487b7160e01b600052601160045260246000fd5b9291505056fea264697066735822122087b410e8de60247551f4485d7e7f353873597dd307552d61b8e90b4b1c44924a64736f6c63430008130033a264697066735822122005b4dd3302594c991f9d14b3a1703c7f1ff0e052e517acbf4abad895422a9faf64736f6c63430008130033",
  "immutableReferences": {},
  "source": "// SPDX-License-Identifier: MIT\npragma solidity ^0.8.19;\n\nimport \"./WorkerTaskContract.sol\"; // Import the WorkerTaskContract\n\ncontract TaskAllocation {\n    struct Worker {\n        uint availableHours;\n        uint expertiseLevel;\n        uint minHourlyWage;\n        address wallet;\n        bool isRegistered;\n    }\n\n    struct Task {\n        uint timeRequired;\n        uint expertiseLevel;\n        uint hourlyWage;\n        uint deadline;\n        bool isDivisible;\n        bool isAllocated;\n        address workerTaskContract; // Store the address of the WorkerTaskContract\n        uint[] dependencies; // Dependencies if any\n    }\n\n    address public admin;\n    uint public totalTasks;\n    uint public totalWorkers;\n    uint public lastTaskOrWorkerUpdate; // To track the last update\n    uint public allocationGapLimit = 5; // Expertise gap limit\n    mapping(uint => Worker) public workers;\n    mapping(uint => Task) public tasks;\n    mapping(uint => address) public taskToWorker;\n    mapping(address => uint[]) public workerToTasks;\n    mapping(address => uint) public addressToWorkerId; // Mapping from address to worker ID\n\n    uint[] public unallocatedTasks;\n    address[] public unallocatedWorkers;\n\n    event WorkerRegistered(uint workerId, address wallet);\n    event TaskAdded(uint taskId, uint timeRequired);\n    event TaskAllocated(uint taskId, address worker, address workerTaskContract);\n\n    constructor() {\n        admin = msg.sender;\n    }\n\n    modifier onlyAdmin() {\n        require(msg.sender == admin, \"Only admin can call this function\");\n        _;\n    }\n\n    function registerWorker(uint _availableHours, uint _expertiseLevel, uint _minHourlyWage) public {\n        totalWorkers++;\n        workers[totalWorkers] = Worker({\n            availableHours: _availableHours,\n            expertiseLevel: _expertiseLevel,\n            minHourlyWage: _minHourlyWage,\n            wallet: msg.sender,\n            isRegistered: true\n        });\n        addressToWorkerId[msg.sender] = totalWorkers; // Map address to worker ID\n\n        // Add to unallocated workers list\n        unallocatedWorkers.push(msg.sender);\n        \n        emit WorkerRegistered(totalWorkers, msg.sender);\n        \n        // Attempt task allocation after a new worker is registered\n        allocateTasksAutomatically();\n        \n    }\n\n    function addTask(uint _timeRequired, uint _expertiseLevel, uint _hourlyWage, uint _deadline, bool _isDivisible, uint[] memory _dependencies) public onlyAdmin {\n        totalTasks++;\n        tasks[totalTasks] = Task({\n            timeRequired: _timeRequired,\n            expertiseLevel: _expertiseLevel,\n            hourlyWage: _hourlyWage,\n            deadline: _deadline,\n            isDivisible: _isDivisible,\n            isAllocated: false,\n            workerTaskContract: address(0), // Initially no contract is assigned\n            dependencies: _dependencies\n        });\n\n        // Add to unallocated tasks list\n        unallocatedTasks.push(totalTasks);\n\n        emit TaskAdded(totalTasks, _timeRequired);\n        \n        // Attempt task allocation after a new task is added\n        allocateTasksAutomatically();\n        \n    }\n\n    function allocateTasksAutomatically() internal {\n        for (uint i = 0; i < unallocatedTasks.length; i++) {\n            uint taskId = unallocatedTasks[i];\n            Task storage task = tasks[taskId];\n            if (!task.isAllocated) {\n                address bestWorker = address(0);\n                uint minExpertiseGap = type(uint).max;\n                \n                for (uint j = 0; j < unallocatedWorkers.length; j++) {\n                    address workerAddress = unallocatedWorkers[j];\n                    uint workerId = addressToWorkerId[workerAddress];\n                    Worker storage worker = workers[workerId];\n                    \n                    uint expertiseGap = task.expertiseLevel > worker.expertiseLevel ? task.expertiseLevel - worker.expertiseLevel : worker.expertiseLevel - task.expertiseLevel;\n                    \n                    if (worker.availableHours >= task.timeRequired &&\n                        expertiseGap <= allocationGapLimit &&\n                        task.hourlyWage >= worker.minHourlyWage &&\n                        expertiseGap < minExpertiseGap) {\n                            \n                        bestWorker = workerAddress;\n                        minExpertiseGap = expertiseGap;\n                    }\n                }\n                \n                if (bestWorker != address(0)) {\n                    allocateTask(taskId, addressToWorkerId[bestWorker]);\n                    // Remove allocated worker from the unallocated workers list\n                    for (uint k = 0; k < unallocatedWorkers.length; k++) {\n                        if (unallocatedWorkers[k] == bestWorker) {\n                            unallocatedWorkers[k] = unallocatedWorkers[unallocatedWorkers.length - 1];\n                            unallocatedWorkers.pop();\n                            break;\n                        }\n                    }\n                }\n            }\n        }\n        \n        lastTaskOrWorkerUpdate = block.timestamp; // Update last task or worker update timestamp\n    }\n\n    function allocateTask(uint taskId, uint workerId) public onlyAdmin {\n        Task storage task = tasks[taskId];\n        Worker storage worker = workers[workerId];\n\n        require(!task.isAllocated, \"Task already allocated\");\n        require(worker.isRegistered, \"Worker is not registered\");\n        require(worker.availableHours >= task.timeRequired, \"Worker does not have enough available hours\");\n        require(worker.expertiseLevel >= task.expertiseLevel, \"Worker does not have required expertise level\");\n        require(task.hourlyWage >= worker.minHourlyWage, \"Hourly wage is less than worker's minimum acceptable wage\");\n\n        task.isAllocated = true;\n\n        // Deploy a new WorkerTaskContract\n        WorkerTaskContract workerTaskContract = new WorkerTaskContract(\n            admin,\n            worker.wallet,\n            task.timeRequired,\n            task.hourlyWage,\n            task.deadline\n        );\n\n        task.workerTaskContract = address(workerTaskContract);\n        taskToWorker[taskId] = worker.wallet;\n        workerToTasks[worker.wallet].push(taskId);\n        worker.availableHours -= task.timeRequired;\n\n        emit TaskAllocated(taskId, worker.wallet, address(workerTaskContract));\n    }\n\n    function getWorkerForTask(uint taskId) public view returns (address) {\n        return taskToWorker[taskId];\n    }\n\n    function getWorkerDetails(uint workerId) public view returns (Worker memory) {\n        return workers[workerId];\n    }\n\n    function getTaskDetails(uint taskId) public view returns (Task memory) {\n        return tasks[taskId];\n    }\n\n    function getAllTasks() public view returns (Task[] memory) {\n        Task[] memory allTasks = new Task[](totalTasks); // Assuming you have a variable tracking total task count\n        for (uint i = 0; i < totalTasks; i++) {\n            allTasks[i] = tasks[i];\n        }\n        return allTasks;\n    }\n\n    function getWorkerTasks(address worker) public view returns (uint[] memory) {\n        return workerToTasks[worker];\n    }\n\n    function getWorkerIdByAddress(address _workerAddress) public view returns (uint) {\n        return addressToWorkerId[_workerAddress];\n    }\n\n    function getUnallocatedTasks() public view returns (uint[] memory) {\n        return unallocatedTasks;\n    }\n\n    function getUnallocatedWorkers() public view returns (address[] memory) {\n        return unallocatedWorkers;\n    }\n\n    receive() external payable {}\n}\n",
  "sourcePath": "/Users/prakritiprasad/Documents/midprep-pclub2/contracts/Task_Allocation.sol",
  "compiler": {
    "name": "solc",
    "version": "0.8.19+commit.7dd6d404.Emscripten.clang"
  },
  "schemaVersion": "3.4.16",
  "updatedAt": "2024-09-04T10:58:17.687Z",
  "devdoc": {
    "kind": "dev",
    "methods": {},
    "version": 1
  },
  "userdoc": {
    "kind": "user",
    "methods": {},
    "version": 1
  }
}