{
  "contractName": "WorkerTaskContract",
  "abi": [
    {
      "inputs": [
        {
          "internalType": "address",
          "name": "_admin",
          "type": "address"
        },
        {
          "internalType": "address",
          "name": "_worker",
          "type": "address"
        },
        {
          "internalType": "uint256",
          "name": "_timeRequired",
          "type": "uint256"
        },
        {
          "internalType": "uint256",
          "name": "_hourlyWage",
          "type": "uint256"
        },
        {
          "internalType": "uint256",
          "name": "_deadline",
          "type": "uint256"
        }
      ],
      "stateMutability": "nonpayable",
      "type": "constructor"
    },
    {
      "anonymous": false,
      "inputs": [
        {
          "indexed": false,
          "internalType": "uint256",
          "name": "payment",
          "type": "uint256"
        },
        {
          "indexed": false,
          "internalType": "address",
          "name": "worker",
          "type": "address"
        }
      ],
      "name": "TaskCompleted",
      "type": "event"
    },
    {
      "inputs": [],
      "name": "admin",
      "outputs": [
        {
          "internalType": "address",
          "name": "",
          "type": "address"
        }
      ],
      "stateMutability": "view",
      "type": "function"
    },
    {
      "inputs": [],
      "name": "deadline",
      "outputs": [
        {
          "internalType": "uint256",
          "name": "",
          "type": "uint256"
        }
      ],
      "stateMutability": "view",
      "type": "function"
    },
    {
      "inputs": [],
      "name": "hourlyWage",
      "outputs": [
        {
          "internalType": "uint256",
          "name": "",
          "type": "uint256"
        }
      ],
      "stateMutability": "view",
      "type": "function"
    },
    {
      "inputs": [],
      "name": "taskCompleted",
      "outputs": [
        {
          "internalType": "bool",
          "name": "",
          "type": "bool"
        }
      ],
      "stateMutability": "view",
      "type": "function"
    },
    {
      "inputs": [],
      "name": "timeRequired",
      "outputs": [
        {
          "internalType": "uint256",
          "name": "",
          "type": "uint256"
        }
      ],
      "stateMutability": "view",
      "type": "function"
    },
    {
      "inputs": [],
      "name": "worker",
      "outputs": [
        {
          "internalType": "address",
          "name": "",
          "type": "address"
        }
      ],
      "stateMutability": "view",
      "type": "function"
    },
    {
      "stateMutability": "payable",
      "type": "receive"
    },
    {
      "inputs": [],
      "name": "completeTask",
      "outputs": [],
      "stateMutability": "nonpayable",
      "type": "function"
    }
  ],
  "bytecode": "0x608060405234801561001057600080fd5b506040516104ea3803806104ea83398101604081905261002f91610096565b600080546001600160a01b039687166001600160a01b03199182161790915560018054959096169416939093179093556002556003919091556004556005805460ff191690556100e4565b80516001600160a01b038116811461009157600080fd5b919050565b600080600080600060a086880312156100ae57600080fd5b6100b78661007a565b94506100c56020870161007a565b6040870151606088015160809098015196999198509695945092505050565b6103f7806100f36000396000f3fe6080604052600436106100745760003560e01c80634d547ada1161004e5780634d547ada146100d65780635ce6dc0a1461010e578063f7317f0014610124578063f851a4401461014e57600080fd5b806329dcb0cf146100805780632acd2087146100a957806343bb8db5146100bf57600080fd5b3661007b57005b600080fd5b34801561008c57600080fd5b5061009660045481565b6040519081526020015b60405180910390f35b3480156100b557600080fd5b5061009660035481565b3480156100cb57600080fd5b506100d461016e565b005b3480156100e257600080fd5b506001546100f6906001600160a01b031681565b6040516001600160a01b0390911681526020016100a0565b34801561011a57600080fd5b5061009660025481565b34801561013057600080fd5b5060055461013e9060ff1681565b60405190151581526020016100a0565b34801561015a57600080fd5b506000546100f6906001600160a01b031681565b6001546001600160a01b031633146101e55760405162461bcd60e51b815260206004820152602f60248201527f4f6e6c79207468652061737369676e656420776f726b65722063616e2063616c60448201526e36103a3434b990333ab731ba34b7b760891b60648201526084015b60405180910390fd5b6004544210156102485760405162461bcd60e51b815260206004820152602860248201527f43616e6e6f7420636f6d706c657465207461736b206265666f72652074686520604482015267646561646c696e6560c01b60648201526084016101dc565b60055460ff16156102945760405162461bcd60e51b815260206004820152601660248201527515185cdac8185b1c9958591e4818dbdb5c1b195d195960521b60448201526064016101dc565b60006003546002546102a69190610396565b6001546040519192506000916001600160a01b039091169083908381818185875af1925050503d80600081146102f8576040519150601f19603f3d011682016040523d82523d6000602084013e6102fd565b606091505b505090508061033f5760405162461bcd60e51b815260206004820152600e60248201526d14185e5b595b9d0819985a5b195960921b60448201526064016101dc565b6005805460ff1916600190811790915554604080518481526001600160a01b0390921660208301527fbb5889c77948badf90e8a5c73d55265e5f5d6e4837a79a78c5669691b897faed910160405180910390a15050565b80820281158282048414176103bb57634e487b7160e01b600052601160045260246000fd5b9291505056fea264697066735822122087b410e8de60247551f4485d7e7f353873597dd307552d61b8e90b4b1c44924a64736f6c63430008130033",
  "immutableReferences": {},
  "source": "// SPDX-License-Identifier: MIT\npragma solidity ^0.8.19;\n\ncontract WorkerTaskContract {\n    address public admin;\n    address public worker;\n    uint public timeRequired;\n    uint public hourlyWage;\n    uint public deadline;\n    bool public taskCompleted;\n\n    event TaskCompleted(uint payment, address worker);\n\n    constructor(\n        address _admin,\n        address _worker,\n        uint _timeRequired,\n        uint _hourlyWage,\n        uint _deadline\n    ) {\n        admin = _admin;\n        worker = _worker;\n        timeRequired = _timeRequired;\n        hourlyWage = _hourlyWage;\n        deadline = _deadline;\n        taskCompleted = false;\n    }\n\n    modifier onlyWorker() {\n        require(msg.sender == worker, \"Only the assigned worker can call this function\");\n        _;\n    }\n\n    modifier onlyAdmin() {\n        require(msg.sender == admin, \"Only the admin can call this function\");\n        _;\n    }\n\n    function completeTask() public onlyWorker {\n        require(block.timestamp >= deadline, \"Cannot complete task before the deadline\");\n        require(!taskCompleted, \"Task already completed\");\n\n        uint payment = timeRequired * hourlyWage;\n\n        (bool success, ) = worker.call{value: payment}(\"\");\n        require(success, \"Payment failed\");\n\n        taskCompleted = true;\n\n        emit TaskCompleted(payment, worker);\n    }\n\n    receive() external payable {}\n}\n",
  "sourcePath": "/Users/prakritiprasad/Documents/midprep-pclub2/contracts/WorkerTaskContract.sol",
  "compiler": {
    "name": "solc",
    "version": "0.8.19+commit.7dd6d404.Emscripten.clang"
  },
  "schemaVersion": "3.4.16",
  "updatedAt": "2024-09-03T00:28:16.000Z",
  "devdoc": {
    "kind": "dev",
    "methods": {},
    "version": 1
  },
  "userdoc": {
    "kind": "user",
    "methods": {},
    "version": 1
  }
}